S00E000054494D4552312E7372656364
S11300000C942A000C9434000C9434000C943400A6
S11300100C9434000C9434000C9434000C9434008C
S11300200C9434000C9434000C9434000C9434007C
S11300300C9434000C9434000C9434000C9434006C
S11300400C9434000C9434000C9434000C9434005C
S11300500C94340011241FBECFE5D8E0DEBFCDBF21
S11300600E94A6000C94F4000C9400004130A1F509
S1130070813089F028F08230C9F0833011F108957D
S11300802AB381E090E002C0880F991F6A95E2F7D5
S1130090822B8ABB089527B381E090E002C0880FC9
S11300A0991F6A95E2F7822B87BB089524B381E0F8
S11300B090E002C0880F991F6A95E2F7822B84BBF7
S11300C0089521B381E090E002C0880F991F6A95DA
S11300D0E2F7822B81BB0895411137C0813091F042
S11300E028F08230D9F0833029F108952AB381E0D1
S11300F090E002C0880F991F6A95E2F780958223E9
S11301008ABB089527B381E090E002C0880F991F4D
S11301106A95E2F78095822387BB089524B381E032
S113012090E002C0880F991F6A95E2F780958223B8
S113013084BB089521B381E090E002C0880F991F29
S11301406A95E2F78095822381BB089541E065E0DA
S113015083E00E9436000E94BF00C0EDD7E00AC0D1
S1130160CE010E94F1008FE19EE40197F1F700C0F7
S113017000002196C13A9FE0D90790F3EECF8FB5E6
S113018090B78E7F90BF8FBD8FB590B7826090BFC0
S11301908FBD8EB59FB588609FBD8EBD8EB59FB552
S11301A080619FBD8EBD8FB590B7806890BF8FBDB5
S11301B08FB590B78F7B90BF8FBD8EB59FB58E7F67
S11301C09FBD8EBD8EB59FB582609FBD8EBD8EB521
S11301D09FB58B7F9FBD8EBD80E49CE997BD86BD96
S10F01E008959BBD8ABD0895F894FFCFDC
S9030000FC
