S00E000054494D4552302E7372656365
S11300000C942A000C943C000C943C000C943C008E
S11300100C943C000C943C000C943C000C943C006C
S11300200C943C000C943C000C94FD000C94D60001
S11300300C943C000C943C000C943C000C943C004C
S11300400C943C000C943C000C943C000C943C003C
S11300500C943C0011241FBECFE5D8E0DEBFCDBF19
S113006020E0A0E6B0E001C01D92A436B207E1F79B
S11300700E94AE000C9424010C9400004130A1F5C0
S1130080813089F028F08230C9F0833011F108956D
S11300902AB381E090E002C0880F991F6A95E2F7C5
S11300A0822B8ABB089527B381E090E002C0880FB9
S11300B0991F6A95E2F7822B87BB089524B381E0E8
S11300C090E002C0880F991F6A95E2F7822B84BBE7
S11300D0089521B381E090E002C0880F991F6A95CA
S11300E0E2F7822B81BB0895411137C0813091F032
S11300F028F08230D9F0833029F108952AB381E0C1
S113010090E002C0880F991F6A95E2F780958223D8
S11301108ABB089527B381E090E002C0880F991F3D
S11301206A95E2F78095822387BB089524B381E022
S113013090E002C0880F991F6A95E2F780958223A8
S113014084BB089521B381E090E002C0880F991F19
S11301506A95E2F78095822381BB089541E063E0CC
S113016081E00E943E008BE40E94B700FFCF93B76A
S1130170987F93BF93B7946093BF93B7906493BFF2
S113018093B7977F93BF93B7906293BF93B79F7EC4
S113019093BF20E2829FC0011124892F8595859504
S11301A09FE1899F802D11248CBF08951F920F9287
S11301B00FB60F9211242F933F934F935F936F9336
S11301C07F938F939F93AF93BF93EF93FF93E091AC
S11301D06200F09163000995FF91EF91BF91AF9197
S11301E09F918F917F916F915F914F913F912F914B
S11301F00F900FBE0F901F9018951F920F920FB67D
S11302000F9211242F933F934F935F936F937F9398
S11302108F939F93AF93BF93EF93FF93E09160000D
S1130220F09161000995FF91EF91BF91AF919F917A
S11302308F917F916F915F914F913F912F910F908B
S10F02400FBE0F901F901895F894FFCF8C
S9030000FC
