S00B000044494F2E737265633D
S11300000C942A000C9434000C9434000C943400A6
S11300100C9434000C9434000C9434000C9434008C
S11300200C9434000C9434000C9434000C9434007C
S11300300C9434000C9434000C9434000C9434006C
S11300400C9434000C9434000C9434000C9434005C
S11300500C94340011241FBECFE5D8E0DEBFCDBF21
S11300600E9496000C94B5000C9400006130C1F419
S1130070813051F028F0823059F0833069F00895CE
S11300808AB38FEF8ABB089587B38FEF87BB089538
S113009084B38FEF84BB089581B38FEF81BB089540
S11300A0611113C0813049F028F0823049F0833067
S11300B051F008958AB31ABA089587B317BA089508
S11300C084B314BA089581B311BA08956130C1F4A8
S11300D0813051F028F0823059F0833069F008956E
S11300E08BB38FEF8BBB08958BB38FEF8BBB0895CE
S11300F08BB38FEF8BBB08958BB38FEF8BBB0895BE
S1130100611113C0813049F028F0823049F0833006
S113011051F008958BB31BBA08958BB31BBA08959D
S11301208BB31BBA08958BB31BBA089561E080E0CA
S11301300E94360061E080E00E9466002FEF89E6AD
S113014098E1215080409040E1F700C0000060E059
S113015080E00E9466002FEF89E698E121508040FC
S11101609040E1F700C00000E5CFF894FFCF17
S9030000FC
